:0300000002037F79
:0C037F00787FE4F6D8FD75815F0203C6AC
:1004F3005459504520544845204B4559005465787C
:10050300743A00444F204E4F542048415645204BE7
:100513004559004B45592020202020202020202011
:10052300202020004B65793A002020202020202025
:0A053300202020202020202020009E
:040705000239FFFFB7
:10002600753B00753C01E4F53DF53E7590FF7FFAA2
:10003600FE12069E12068AE4FF1206441202E88F9A
:100046003FE53FB40D137BFF7A0479F37D01E4FFAE
:100056001205A8753D00753E01E53FB40F05E4F5B0
:100066003BF53CE53FB41006753B00753C01E53FAA
:10007600700302010DE53C6401453B700302010D6E
:10008600E53F640F700302010DE53E6401453D60E6
:1000960076E53F640B6070E53F640C606AE53F649B
:1000A6000D6064E53F640E605E7BFF7A0579007D36
:1000B60001E4FF1205A8E53F640A60087430253F95
:1000C600F53F8003753F30E53AF47003E539F46097
:1000D600297B007A007919AF3F12053D7B007A0033
:1000E60079197D07E4FF1205A8E53F253AFF1206B8
:1000F600447FF47E01120003800D7BFF7A057906AA
:100106007D01E4FF1205A8E53F606D640B6069E5BB
:100116003F640C6063E53F640D605DE53F640E601F
:1001260057E53F640F6051E53F6410604BE53E6460
:1001360001453D70437BFF7A0579167D01FF120567
:10014600A8E53F640A60087430253FF53F800375D3
:100156003F307B007A007929AF3F12053D7B007A5C
:100166000079297D07E4FF1205A87B007A0079292A
:100176001205D77539008F3AE53F6037640E703344
:10018600E53E6401453D702BF53DF53E7BFF7A0566
:1001960079277D017F011205A87B007A0079297DE8
:1001A600057F011205A87BFF7A05792C7D01E4FF06
:1001B6001205A8E53F7003020042640C60030200CA
:1001C60042FB7A0079297D10FC12057C7A007919A8
:1001D6001205767A00790812057674FFF539F53A34
:1001E600E4F53DF53E7BFF7A05792C7D01FF12058E
:1001F600A87BFF7A05792C7D017F011205A80200F4
:0102060042B5
:0300230002040BC9
:10040B00C0E0C0F0C083C082C0D075D000C000C0B7
:10041B0001C002C003C004C005C006C00730984F1E
:10042B00859918C298E5186046C3953AF5187B0074
:10043B007A007919FF12053D12068A7BFF7A05793E
:10044B00007D01E4FF1205A87B007A0079197D0776
:10045B00E4FF1205A87BFF7A0579277D017F011246
:10046B0005A87B007A0079297D057F011205A8D0AC
:10047B0007D006D005D004D003D002D001D000D0D5
:0A048B00D0D082D083D0F0D0E03250
:10000300E4FDFCC3ED9FEC9E5015E4FBFA0BBB0033
:0F001300010AEB647B4A70F50DBD00010C80E41F
:0100220022BB
:060576007B007D107C00FB
:06057C008B408A41894218
:10058200E4FFFEC3EF9DEC6480F8EE6480985015A2
:10059200AB40AA41A9428F828E83E412025F0FBF51
:0505A20000010E80DEE7
:0105A7002231
:0605D7008B408A418942BD
:1005DD00E4F543F544FFAB40AA41A9428F827583F0
:1005ED0000120220600C2544F544E43543F5430F19
:0405FD0080E4AF44A3
:0106010022D6
:0E06E1004F5554204F46204C454E475448007C
:0A067600C2A18F80D2A27F017E0096
:0A0680007C037DE81202810206EF00
:0E06C500C2A0120676C2A27F017E000206804D
:0E06D300D2A0120676C2A27F017E000206802F
:10068A007F381206C57F0C1206C57F061206C57F83
:04069A00010206C58E
:100660008D4FE54FBF01051444808005144480245C
:0606700040FF1206C52246
:0A06FB008B5F120660AF5F0206D3AA
:0605A8008B488A49894AD4
:1005AE00754CFF754D06754EE1120660E4F54BABCA
:1005BE0048AA49A94A854B82758300120220FF6022
:0805CE00071206D3054B80E77C
:0105D6002202
:0C06EF00EF4E6007EF1F70F81E80F52230
:04060200AB07AA0692
:10060600E4F97C007D0AAF03AE02120281E9C39FC2
:0D061600EC9E5009E4FF0FBF21FC0980E5B8
:0106230022B4
:1002E800E4F540F541F54275900F7F01FE1206EFE7
:1002F800AF90EF640F606ABF0E057540018016BFAE
:100308000D05754002800EBF0B057540038006BFC2
:1003180007037540047590FF7F017E001206EF7594
:1003280090F07F017E001206EFAF90BFE0057541A7
:10033800018016BFD005754102800EBFB00575411A
:10034800038006BF7003754104E59064F06012E510
:1003580042C394FF500B7FE87E031206EF054280EC
:10036800E8E540600FE541600BE5401425E025E035
:060378002541FF227F0079
:01037E00225C
:10069E004389207598504387808F8D8F8BD2ACD233
:0406AE00AFD28E2217
:100644007D107C278F99209910D3ED9400EC9400B1
:0B0654004007ED1D70F01C80EDC29906
:01065F002278
:1006B200120207FF600C120644740129F9E43AFAA7
:0306C20080EE22A5
:060495008B508A518952D0
:10049B00E4F55AF55BC3E55B9557E55A955650471E
:1004AB00AB50E552255BF9E551355AFAC003C00252
:1004BB00C001120207FFC007AC58AD59AE5AAF5B73
:1004CB00120293AB53AA54A9558D828C831202202E
:1004DB00FED0E06ED001D002D00312024D055BE5D9
:0704EB005B70B2055A80AE00
:0104F20022E7
:08053D008F488B498A4A894B63
:10054500E4FFFEAB49AA4AA94B8F828E8312022093
:1005550060070FBF00010E80EAAB49AA4AA94B8F7D
:10056500828E83E54812025F8F828E83A3E40202A6
:010575005F26
:060624008B5C8A5D895E1B
:10062A00E4FFFEAB5CAA5DA95E8F828E8312022074
:09063A0060070FBF00010E80EA09
:010643002294
:10038B00020026E493A3F8E493A34003F68001F262
:10039B0008DFF48029E493A3F85407240CC8C33373
:1003AB00C4540F4420C8834004F456800146F6DF42
:1003BB00E4800B0102040810204080900705E47EC6
:1003CB00019360BCA3FF543F30E509541FFEE49337
:1003DB00A360010ECF54C025E060A840B8E493A3FE
:1003EB00FAE493A3F8E493A3C8C582C8CAC583CA29
:1003FB00F0A3C8C582C8CAC583CADFE9DEE780BEE1
:0107090000EF
:10020700BB010689828A83E0225002E722BBFE02F5
:09021700E32289828A83E4932228
:10022000BB010CE58229F582E5833AF583E0225093
:1002300006E92582F8E622BBFE06E92582F8E222DD
:0D024000E58229F582E5833AF583E49322F7
:10024D00BB010689828A83F0225002F722BBFE0190
:02025D00F3228A
:10025F00F8BB010DE58229F582E5833AF583E8F0D5
:10026F00225006E92582C8F622BBFE05E92582C881
:02027F00F22269
:10028100EF8DF0A4A8F0CF8CF0A428CE8DF0A42E91
:02029100FE224B
:10029300BC000BBE0029EF8DF084FFADF022E4CC4F
:1002A300F875F008EF2FFFEE33FEEC33FCEE9DEC18
:1002B300984005FCEE9DFE0FD5F0E9E4CEFD22ED5E
:1002C300F8F5F0EE8420D21CFEADF075F008EF2FA8
:1002D300FFED33FD4007985006D5F0F222C398FD99
:0502E3000FD5F0EA2236
:00000001FF
