:03000000020BA34D
:0C0BA300787FE4F6D8FD758172020BEA41
:100D010010083738392F343536583132332D4330C6
:020D11003D2B78
:100E3F007590FF120E6E120B0C8F50E55060F72459
:090E4F0007F8E6FF1206D580ED5C
:0A0E9E00C2A18F80D2A27F017E0066
:030EA800020E1D1A
:0E0E8200C2A0120E9EC2A27F017E00020EA828
:0E0E9000D2A0120E9EC2A27F017E00020EA80A
:100E6E007F38120E827F0C120E827F06120E827F48
:040E7E0001020E82DD
:100E58008D58E558BF01051444808005144480244A
:060E680040FF120E822281
:060DF7008B548A55895659
:100DFD00120E58E4F557AB54AA55A956855782756E
:0F0E0D0083001200F9FF6007120E90055780E76F
:010E1C0022B3
:100B0C00E4F551F552F55375900F7F01FE120EABC3
:100B1C00AF90EF640F606ABF0E057551018016BF70
:100B2C000D05755102800EBF0B057551038006BF74
:100B3C0007037551047590FF7F017E00120EAB7593
:100B4C0090F07F017E00120EABAF90BFE0057552A6
:100B5C00018016BFD005755202800EBFB0057552CC
:100B6C00038006BF7003755204E59064F06012E5D3
:100B7C0053C394FF500B7FE87E03120EAB055380DA
:100B8C00E8E551600FE552600BE5511425E025E0D6
:060B9C002552FF227F003C
:010BA2002230
:0C0EAB00EF4E6007EF1F70F81E80F5226C
:040E1D00AB07AA066F
:100E2100E4F97C007D0AAF03AE0212015AE9C39FC7
:0D0E3100EC9E5009E4FF0FBF21FC0980E595
:010E3E002291
:100C2F0020202020202020202020202020202020B5
:100C3F0000256C64004572726F72202020202020E6
:100C4F002020202020004232313032323531350021
:100C5F0030002E2564004552524F52210030313260
:0E0C6F00333435363738394142434445460068
:100D1300043700000000043B00000000013F000412
:100D23002200000000012600102700000000000040
:0A0D330000000000000000000000B6
:0B0EB7007BFF7A0C792F7D01020DF704
:100DA9007557FF75580C7559408F5D8E5C8D5B8C3E
:100DB9005A7B007A0079401203D57B007A0079408A
:070DC9007D01E4FF020DF7BC
:0F0CC1007557007558007559407B007A007927E8
:060CD0008B548A55895681
:100CD600E4F55AF55BAB57AA58A959855B82855A44
:100CE600831200F9FF6013AB54AA55A956120D3EA4
:0A0CF600055BE55B70DF055A80DB4B
:010D000022D0
:080D3E008F5C8B5D8A5E895F0A
:100D4600E4FFFEAB5DAA5EA95F8F828E831200F977
:100D560060070FBF00010E80EAAB5DAA5EA95F8F38
:100D6600828E83E55C1201388F828E83A3E40201B2
:010D76003844
:060D77007A0079277D10CF
:060D7D008B548A558956D3
:100D8300E4FFFEC3EF9DEC6480F8EE648098501599
:100D9300AB54AA55A9568F828E83E41201380FBF34
:050DA30000010E80DEDE
:010DA8002228
:0809CC008F578E568D558C5497
:1009D400785D7C007D007BFF7A0C796C7E007F1152
:1009E4001200D3E4F56EF56FAF57AE56AD55AC5467
:1009F400EC4D4E4F7018AB5AAA5BA95C74301201CF
:100A040026AB5AAA5BA95C900001E4020138E4FF1A
:100A1400FEFDFCAB57AA56A955A854D31201F140C8
:100A240063AE58AF59AB07AA06EA3395E0F9F8AFBD
:100A340057AE56AD55AC54120C7D745D2BF8E6FFE1
:100A4400AB5AAA5BA95C056FE56FAC6E7002056ECC
:100A540014F5828C83EF120138AF57AE56AD55AC06
:100A640054C006C007AE58AF59AB07AA06EA33957F
:100A7400E0F9F8D007D006120C7D8F578E568D55AD
:100A84008C54808AAB5AAA5BA95C856F82856E837D
:100A9400E4120138E4F570F571AE6EAF6F7C007D41
:100AA4000212016CC3E5719FEE6480F8E570648006
:100AB400985054AB5AAA5BA95C85718285708312E5
:100AC40000F9F572C3E56F9571CFE56E9570CF248B
:100AD400FFCF34FF8F82F5831200F9857182857010
:100AE40083120138C3E56F9571CFE56E9570CF24FD
:100AF400FFCF34FF8F82F583E5721201380571E56B
:070B04007170020570809280
:010B0B0022C7
:0206D5008F5143
:1006D700E4F552F553FB7A007927120D3E7B007A39
:1006E7000079277D017F01120DF7C3E551648094DE
:1006F700B04070D3E551648094B95067E526600B2C
:10070700E4F53AF539F538F537F526E47F0AFEFDC5
:10071700FCAB3AAA39A938A8371201A2A804A9053F
:10072700AA06AB07AF51EF3395E0FEEF24D0FFEEFB
:1007370034FFFEE4FCFDEB2FF53AEA3EF539ED39DF
:10074700F538EC38F5377557FF75580C75594085EE
:100757003A5D85395C85385BF55A7B007A007940CC
:100767000203D5E551642B6011E551642D600BE55B
:100777005164586005E551B42F1385513F853A3EC2
:1007870085393D85383C85373BE40208BFE5516430
:100797003D600302099EE53F700302087024D360A1
:1007A7002A24FE606024D7603E242D60030209CB13
:1007B700E53E253AF525E53D3539F524E53C35385F
:1007C700F523E53B3537F52202091EC3E53E953A89
:1007D700F525E53D9539F524E53C9538F523E53BC9
:1007E7009537F52202091EAF3AAE39AD38AC37ABB3
:1007F7003EAA3DA93CA83B1201A28F258E248D233A
:100807008C2202091EAF3AAE39AD38AC37EC4D4EEB
:100817004F6049AB3AAA39A938A837AF3EAE3DADCC
:100827003CAC3B120C7D8F258E248D238C22E47FDC
:100837000AFEFDFCAB3EAA3DA93CA83B1201A2ABB8
:100847003AAA39A938A837120C7D8E528F537C00EB
:100857007D0A12016C8C528D5302091E7BFF7A0CA4
:1008670079447D01E4FF0209C8AF3AAE39AD38AC2F
:1008770037EC4D4E4F70277BFF7A0C79557D01FF82
:10088700120DF77F017E00120EB77BFF7A0C795F9E
:100897007D017F01120DF77B007C00120D77AF3EC3
:1008A700AE3DAD3CAC3BEC4D4E4F7015853A3E85A9
:1008B700393D85383C85373BF53AF539F538F53715
:1008C70022AF3AAE39AD38AC37EC4D4E4F6048AF3A
:1008D7003EAE3DAD3CAC3BEC4D4E4F603A85395892
:1008E700853A59755A00755B00755C401209CC1240
:1008F7000CC17B007A0079277D017F01120DF7E497
:10090700F52685253A852439852338852237F53E0E
:10091700F53DF53CF53B227557FF75580C75594069
:1009270085255D85245C85235B85225A7B007A00BB
:1009370079401203D5120CC1E5534552601B755718
:10094700FF75580C75596185525A85535B7B007A40
:100957000079401203D5120CC1E5376013E4FFFE9E
:10096700120EB77BFF7A0C79657D01E4FF120DF754
:100977007B007A0079277D017F01120DF7E4F526C8
:1009870085253A852439852338852237F53EF53D77
:10099700F53CF53BF53F22E551B44328E4F53AF53C
:1009A70039F538F537F53EF53DF53CF53BF53FFBB9
:1009B700FC120D77120E6E7BFF7A0C795F7D017F3B
:0409C70001120DF715
:0109CB002209
:100BAF00020E3FE493A3F8E493A34003F68001F20F
:100BBF0008DFF48029E493A3F85407240CC8C33347
:100BCF00C4540F4420C8834004F456800146F6DF16
:100BDF00E4800B0102040810204080900D01E47E98
:100BEF00019360BCA3FF543F30E509541FFEE4930B
:100BFF00A360010ECF54C025E060A840B8E493A3D2
:100C0F00FAE493A3F8E493A3C8C582C8CAC583CAFC
:100C1F00F0A3C8C582C8CAC583CADFE9DEE780BEB4
:010D3D0000B5
:10000300E709F608DFFA8046E709F208DFFA803EDF
:1000130088828C83E709F0A3DFFA8032E309F608CC
:10002300DFFA8078E309F208DFFA807088828C8334
:10003300E309F0A3DFFA806489828A83E0A3F608E8
:10004300DFFA805889828A83E0A3F208DFFA804CC2
:1000530080D280FA80C680D4806980F28033801099
:1000630080A680EA809A80A880DA80E280CA803302
:1000730089828A83ECFAE493A3C8C582C8CCC5837A
:10008300CCF0A3C8C582C8CCC583CCDFE9DEE7804A
:100093000D89828A83E493A3F608DFF9ECFAA9F0C9
:1000A300EDFB2289828A83ECFAE0A3C8C582C8CC1F
:1000B300C583CCF0A3C8C582C8CCC583CCDFEADE38
:1000C300E880DB89828A83E493A3F208DFF980CC9A
:1000D30088F0EF60010E4E60C388F0ED2402B40493
:1000E3000050B9F582EB2402B4040050AF2323453A
:0600F3008223900053730C
:1000F900BB010CE58229F582E5833AF583E02250BC
:1001090006E92582F8E622BBFE06E92582F8E22205
:0D011900E58229F582E5833AF583E493221F
:10012600BB010689828A83F0225002F722BBFE01B8
:02013600F322B2
:10013800F8BB010DE58229F582E5833AF583E8F0FD
:10014800225006E92582C8F622BBFE05E92582C8A9
:02015800F22291
:10015A00EF8DF0A4A8F0CF8CF0A428CE8DF0A42EB9
:02016A00FE2273
:10016C00C2D5EC30E709B2D5E4C39DFDE49CFCEEAE
:10017C0030E715B2D5E4C39FFFE49EFE120220C304
:10018C00E49DFDE49CFC800312022030D507C3E4FF
:06019C009FFFE49EFE221D
:1001A200E88FF0A4CC8BF0A42CFCE98EF0A42CFCFC
:1001B2008AF0EDA42CFCEA8EF0A4CDA8F08BF0A47A
:1001C2002DCC3825F0FDE98FF0A42CCD35F0FCEBD9
:1001D2008EF0A4FEA9F0EB8FF0A4CFC5F02ECD399E
:0F01E200FEE43CFCEAA42DCE35F0FDE43CFC220B
:100C7D00C2D5E830E70FB2D5E4C39BFBE49AFAE4A2
:100C8D0099F9E498F8EC30E717B2D5120CB31202CB
:100C9D00B1E4C39BFBE49AFAE499F9E498F8800374
:100CAD001202B130D50DE4C39FFFE49EFEE49DFD1D
:040CBD00E49CFC2295
:1001F100EB9FF5F0EA9E42F0E99D42F0EC6480C885
:0602010064809845F02224
:10037900E5632457F8E60563227854300702785775
:10038900E475F0011203430202072000EB7F2ED22D
:10039900008018EF540F2490D43440D4FF30040B5C
:1003A900EF24BFB41A0050032461FFE5646002150D
:1003B900640567E5677002056630070D7854E475D2
:1003C900F001120343EF020126020DD07403D20794
:1003D9008003E4C207F5638B548A558956E4F564B2
:1003E900F566F567E56460077F201203B480F5754B
:1003F90065FFC201C200C202C203C205C206C20829
:10040900120382FF700D3007057F001203C5AF6725
:10041900AE6622B4255FC2D5C204120382FF24D07E
:10042900B40A00501A75F00A786430D50508B6FF89
:100439000106C6A426F620D5047002D20380D92469
:10044900CFB41A00EF5004C2E5D2040205C5D201A7
:1004590080C6D20080C0D20280BCD2D580BAD20573
:1004690080B47F201203B42002077401B5640040F0
:10047900F1120379FF1203B40203EDD208D2068008
:1004890095120379FB120379FA120379F94A4B7031
:100499000679967A067BFF20022EE564602A7E00A3
:1004A9008E827583001200F960060EEE656570F0A4
:1004B900C2D5EBC0E0EAC0E0E9C0E0EE12060CD01C
:1004C900E0F9D0E0FAD0E0FB120207FF60AAEBC026
:1004D900E0EAC0E0E9C0E01203B4D0E02401F9D0B9
:1004E900E03400FAD0E0FBE5650460DCD565D9802D
:1004F900877BFF7A067908D202809C79108002797D
:1005090008C206C2088008D2D5790A8004790AC2CD
:10051900D5E565047002F565E4FAFDFEFF1203797D
:10052900FC7B08200113120379FD7B1030000A12AD
:100539000379FE120379FF7B20EC3382D592D550E3
:1005490013C3E43000069FFFE49EFEE42001039DEF
:10055900FDE49CFCE4CBF8C201EC700CCFCECDCC11
:10056900E824F8F870F38017C3EF33FFEE33FEED9C
:1005790033FDEC33FCEB33FB994002FB0FD8E9EB7D
:10058900300105F8D0E0C448B201C0E00AEC4D4E94
:100599004F78207B0070C2EAB5650040BCC0E0120C
:1005A900060ED0F0D0E0200104C4C0E0C4B201C0FE
:1005B900F012039DD0F0D5F0EB0203ED12035304C2
:1005C9008A53050458045B4C04574205084F05102B
:0F05D9004405104904704305165504FA4604FA08
:1005E8004504FA4706B650045F2D04632E04862B93
:1005F800046723048420069F2A041F480000047E01
:100608003F3F3F00790AA2D5200314300509B910ED
:10061800020404B9080104A2D520060250010420EE
:1006280002689202B564005034C0E07F203003199C
:100638007F30A20272067205500F120665C202C20E
:1006480006C205C2087F30800F300503E9C0E012FA
:1006580003B4300503D0E0F9D0E0B564CC30051719
:100668007F30B9100C1203B47F583004077F7880AC
:1006780003B908031203B43002057F2D0203B47FC7
:10068800202008F87F2B2006F322920280CF286EC4
:10069800756C6C2900D2011203793001F8C2017817
:1006A8006430D50108F602041F2D5043495812033F
:1006B800792403B405004001E49006B1931203A520
:0D06C800743A1203A5D20375640402050400
:10020700BB010689828A83E0225002E722BBFE02F5
:09021700E32289828A83E4932228
:10022000BC000BBE0029EF8DF084FFADF022E4CCC2
:10023000F875F008EF2FFFEE33FEEC33FCEE9DEC8B
:10024000984005FCEE9DFE0FD5F0E9E4CEFD22EDD1
:10025000F8F5F0EE8420D21CFEADF075F008EF2F1B
:10026000FFED33FD4007985006D5F0F222C398FD0C
:050270000FD5F0EA22A9
:1002750075F008758200EF2FFFEE33FECD33CDCC40
:1002850033CCC58233C5829BED9AEC99E5829840C3
:100295000CF582EE9BFEED9AFDEC99FC0FD5F0D6A0
:1002A500E4CEFBE4CDFAE4CCF9A88222B800C1B9CA
:1002B5000059BA002DEC8BF084CFCECDFCE5F0CB08
:1002C500F97818EF2FFFEE33FEED33FDEC33FCEB41
:1002D50033FB10D703994004EB99FB0FD8E5E4F9FC
:1002E500FA227818EF2FFFEE33FEED33FDEC33FCE9
:1002F500C933C910D7059BE99A4007EC9BFCE99ADD
:10030500F90FD8E0E4C9FAE4CCFB2275F010EF2F21
:10031500FFEE33FEED33FDCC33CCC833C810D70721
:100325009BEC9AE899400AED9BFDEC9AFCE899F85C
:0E0335000FD5F0DAE4CDFBE4CCFAE4C8F922EF
:10034300FAE6FB0808E6F925F0F618E6CA3AF622BB
:10035300D083D082F8E4937012740193700DA3A339
:1003630093F8740193F5828883E47374029368604D
:06037300EFA3A3A380DF4D
:100DD000EFB40A07740D120DDB740A309811A8994C
:100DE000B8130CC2983098FDA899C298B811F63083
:070DF00099FDC299F599225B
:00000001FF
